{
  "_format": "hh-sol-artifact-1",
  "contractName": "MedicalDelivery",
  "sourceName": "contracts/MedicalDelivery.sol",
  "abi": [
    {
      "anonymous": false,
      "inputs": [
        {
          "indexed": false,
          "internalType": "string",
          "name": "batchId",
          "type": "string"
        },
        {
          "indexed": false,
          "internalType": "string",
          "name": "status",
          "type": "string"
        }
      ],
      "name": "DeliveryUpdated",
      "type": "event"
    },
    {
      "inputs": [
        {
          "internalType": "string",
          "name": "",
          "type": "string"
        }
      ],
      "name": "deliveries",
      "outputs": [
        {
          "internalType": "string",
          "name": "batchId",
          "type": "string"
        },
        {
          "internalType": "string",
          "name": "equipmentType",
          "type": "string"
        },
        {
          "internalType": "string",
          "name": "status",
          "type": "string"
        },
        {
          "internalType": "string",
          "name": "logisticsProvider",
          "type": "string"
        },
        {
          "internalType": "uint256",
          "name": "timestamp",
          "type": "uint256"
        }
      ],
      "stateMutability": "view",
      "type": "function"
    },
    {
      "inputs": [
        {
          "internalType": "string",
          "name": "_batchId",
          "type": "string"
        }
      ],
      "name": "getDelivery",
      "outputs": [
        {
          "components": [
            {
              "internalType": "string",
              "name": "batchId",
              "type": "string"
            },
            {
              "internalType": "string",
              "name": "equipmentType",
              "type": "string"
            },
            {
              "internalType": "string",
              "name": "status",
              "type": "string"
            },
            {
              "internalType": "string",
              "name": "logisticsProvider",
              "type": "string"
            },
            {
              "internalType": "uint256",
              "name": "timestamp",
              "type": "uint256"
            }
          ],
          "internalType": "struct MedicalDelivery.Delivery",
          "name": "",
          "type": "tuple"
        }
      ],
      "stateMutability": "view",
      "type": "function"
    },
    {
      "inputs": [
        {
          "internalType": "string",
          "name": "_batchId",
          "type": "string"
        },
        {
          "internalType": "string",
          "name": "_equipmentType",
          "type": "string"
        },
        {
          "internalType": "string",
          "name": "_status",
          "type": "string"
        },
        {
          "internalType": "string",
          "name": "_logisticsProvider",
          "type": "string"
        }
      ],
      "name": "updateDelivery",
      "outputs": [],
      "stateMutability": "nonpayable",
      "type": "function"
    }
  ],
  "bytecode": "0x608060405234801561001057600080fd5b50610ef9806100206000396000f3fe608060405234801561001057600080fd5b50600436106100415760003560e01c8063822c53f014610046578063d83a7cf914610062578063e1ca449f14610092575b600080fd5b610060600480360381019061005b919061082e565b6100c6565b005b61007c60048036038101906100779190610905565b6101af565b6040516100899190610a71565b60405180910390f35b6100ac60048036038101906100a79190610905565b610439565b6040516100bd959493929190610aec565b60405180910390f35b6040518060a00160405280858152602001848152602001838152602001828152602001428152506000856040516100fd9190610b97565b908152602001604051809103902060008201518160000190816101209190610dba565b5060208201518160010190816101369190610dba565b50604082015181600201908161014c9190610dba565b5060608201518160030190816101629190610dba565b50608082015181600401559050507fe181c6c5b73b7019477499ab7fcfe0f94cc6a5b23d6d87d61bd07eef7fc2f61e84836040516101a1929190610e8c565b60405180910390a150505050565b6101b76106a5565b6000826040516101c79190610b97565b90815260200160405180910390206040518060a00160405290816000820180546101f090610bdd565b80601f016020809104026020016040519081016040528092919081815260200182805461021c90610bdd565b80156102695780601f1061023e57610100808354040283529160200191610269565b820191906000526020600020905b81548152906001019060200180831161024c57829003601f168201915b5050505050815260200160018201805461028290610bdd565b80601f01602080910402602001604051908101604052809291908181526020018280546102ae90610bdd565b80156102fb5780601f106102d0576101008083540402835291602001916102fb565b820191906000526020600020905b8154815290600101906020018083116102de57829003601f168201915b5050505050815260200160028201805461031490610bdd565b80601f016020809104026020016040519081016040528092919081815260200182805461034090610bdd565b801561038d5780601f106103625761010080835404028352916020019161038d565b820191906000526020600020905b81548152906001019060200180831161037057829003601f168201915b505050505081526020016003820180546103a690610bdd565b80601f01602080910402602001604051908101604052809291908181526020018280546103d290610bdd565b801561041f5780601f106103f45761010080835404028352916020019161041f565b820191906000526020600020905b81548152906001019060200180831161040257829003601f168201915b505050505081526020016004820154815250509050919050565b60008180516020810182018051848252602083016020850120818352809550505050505060009150905080600001805461047290610bdd565b80601f016020809104026020016040519081016040528092919081815260200182805461049e90610bdd565b80156104eb5780601f106104c0576101008083540402835291602001916104eb565b820191906000526020600020905b8154815290600101906020018083116104ce57829003601f168201915b50505050509080600101805461050090610bdd565b80601f016020809104026020016040519081016040528092919081815260200182805461052c90610bdd565b80156105795780601f1061054e57610100808354040283529160200191610579565b820191906000526020600020905b81548152906001019060200180831161055c57829003601f168201915b50505050509080600201805461058e90610bdd565b80601f01602080910402602001604051908101604052809291908181526020018280546105ba90610bdd565b80156106075780601f106105dc57610100808354040283529160200191610607565b820191906000526020600020905b8154815290600101906020018083116105ea57829003601f168201915b50505050509080600301805461061c90610bdd565b80601f016020809104026020016040519081016040528092919081815260200182805461064890610bdd565b80156106955780601f1061066a57610100808354040283529160200191610695565b820191906000526020600020905b81548152906001019060200180831161067857829003601f168201915b5050505050908060040154905085565b6040518060a0016040528060608152602001606081526020016060815260200160608152602001600081525090565b6000604051905090565b600080fd5b600080fd5b600080fd5b600080fd5b6000601f19601f8301169050919050565b7f4e487b7100000000000000000000000000000000000000000000000000000000600052604160045260246000fd5b61073b826106f2565b810181811067ffffffffffffffff8211171561075a57610759610703565b5b80604052505050565b600061076d6106d4565b90506107798282610732565b919050565b600067ffffffffffffffff82111561079957610798610703565b5b6107a2826106f2565b9050602081019050919050565b82818337600083830152505050565b60006107d16107cc8461077e565b610763565b9050828152602081018484840111156107ed576107ec6106ed565b5b6107f88482856107af565b509392505050565b600082601f830112610815576108146106e8565b5b81356108258482602086016107be565b91505092915050565b60008060008060808587031215610848576108476106de565b5b600085013567ffffffffffffffff811115610866576108656106e3565b5b61087287828801610800565b945050602085013567ffffffffffffffff811115610893576108926106e3565b5b61089f87828801610800565b935050604085013567ffffffffffffffff8111156108c0576108bf6106e3565b5b6108cc87828801610800565b925050606085013567ffffffffffffffff8111156108ed576108ec6106e3565b5b6108f987828801610800565b91505092959194509250565b60006020828403121561091b5761091a6106de565b5b600082013567ffffffffffffffff811115610939576109386106e3565b5b61094584828501610800565b91505092915050565b600081519050919050565b600082825260208201905092915050565b60005b8381101561098857808201518184015260208101905061096d565b60008484015250505050565b600061099f8261094e565b6109a98185610959565b93506109b981856020860161096a565b6109c2816106f2565b840191505092915050565b6000819050919050565b6109e0816109cd565b82525050565b600060a0830160008301518482036000860152610a038282610994565b91505060208301518482036020860152610a1d8282610994565b91505060408301518482036040860152610a378282610994565b91505060608301518482036060860152610a518282610994565b9150506080830151610a6660808601826109d7565b508091505092915050565b60006020820190508181036000830152610a8b81846109e6565b905092915050565b600082825260208201905092915050565b6000610aaf8261094e565b610ab98185610a93565b9350610ac981856020860161096a565b610ad2816106f2565b840191505092915050565b610ae6816109cd565b82525050565b600060a0820190508181036000830152610b068188610aa4565b90508181036020830152610b1a8187610aa4565b90508181036040830152610b2e8186610aa4565b90508181036060830152610b428185610aa4565b9050610b516080830184610add565b9695505050505050565b600081905092915050565b6000610b718261094e565b610b7b8185610b5b565b9350610b8b81856020860161096a565b80840191505092915050565b6000610ba38284610b66565b915081905092915050565b7f4e487b7100000000000000000000000000000000000000000000000000000000600052602260045260246000fd5b60006002820490506001821680610bf557607f821691505b602082108103610c0857610c07610bae565b5b50919050565b60008190508160005260206000209050919050565b60006020601f8301049050919050565b600082821b905092915050565b600060088302610c707fffffffffffffffffffffffffffffffffffffffffffffffffffffffffffffffff82610c33565b610c7a8683610c33565b95508019841693508086168417925050509392505050565b6000819050919050565b6000610cb7610cb2610cad846109cd565b610c92565b6109cd565b9050919050565b6000819050919050565b610cd183610c9c565b610ce5610cdd82610cbe565b848454610c40565b825550505050565b600090565b610cfa610ced565b610d05818484610cc8565b505050565b5b81811015610d2957610d1e600082610cf2565b600181019050610d0b565b5050565b601f821115610d6e57610d3f81610c0e565b610d4884610c23565b81016020851015610d57578190505b610d6b610d6385610c23565b830182610d0a565b50505b505050565b600082821c905092915050565b6000610d9160001984600802610d73565b1980831691505092915050565b6000610daa8383610d80565b9150826002028217905092915050565b610dc38261094e565b67ffffffffffffffff811115610ddc57610ddb610703565b5b610de68254610bdd565b610df1828285610d2d565b600060209050601f831160018114610e245760008415610e12578287015190505b610e1c8582610d9e565b865550610e84565b601f198416610e3286610c0e565b60005b82811015610e5a57848901518255600182019150602085019450602081019050610e35565b86831015610e775784890151610e73601f891682610d80565b8355505b6001600288020188555050505b505050505050565b60006040820190508181036000830152610ea68185610aa4565b90508181036020830152610eba8184610aa4565b9050939250505056fea2646970667358221220cbf7991e743a071db0132b5c2ee8b766a03adcf4ce0118ca94cb65859936533664736f6c63430008140033",
  "linkReferences": {},
  "deployedLinkReferences": {}
}